:100000000C942A000C9447000C9447000C94470071
:100010000C9447000C9447000C9447000C94470044
:100020000C9447000C9447000C9447000C94470034
:100030000C9447000C9447000C9447000C94470024
:100040000C9447000C9447000C9447000C94470014
:100050000C94470011241FBECFE5D8E0DEBFCDBF12
:1000600011E0A0E6B0E0E0EAF7E002C005900D92F2
:10007000AE38B107D9F721E0AEE8B1E001C01D927A
:10008000A039B207E1F70E940F020C94CE030C9442
:1000900000000F931F93CF938C01C0E013C08C2FEF
:1000A00090E0DC01AA0FBB1FA00FB11FFC0131962D
:1000B000EE0FFF1FE00FF11F13966C9180810E94DD
:1000C0001E02CF5FCE3058F3CF911F910F9108954C
:1000D000EF92FF920F931F93CF93DF93C0E097C0EF
:1000E00026E2C29FC001112487579F4F0E944900FA
:1000F00011E0D0E07DC02C2F30E0802F90E043E174
:10010000429FF001439FF00D1124E80FF91FEE0FFD
:10011000FF1FE757FF4F4381411121C043E1429F39
:10012000F001439FF00D1124DF01AD0FB11D1F96AB
:10013000AA0FBB1FA757BF4F6D917C91002E02C025
:10014000769567950A94E2F76170E80FF91F31968A
:10015000EE0FFF1FE757FF4F80810E9409030F5FDB
:1001600001C000E00E3038F200E03BC02C2F30E040
:10017000802F90E043E1429FF001439FF00D112456
:10018000E80FF91FEE0FFF1FE757FF4F4381413084
:1001900039F543E1429F7001439FF00C1124F701B0
:1001A000E80FF91F3196EE0FFF1FE757FF4F8081D1
:1001B0000E949603F701ED0FF11D3F96EE0FFF1F12
:1001C000E757FF4F20813181002E02C036952795D9
:1001D0000A94E2F72170332790E02817390721F4B9
:1001E0000F5F0E3018F201C010E0112321F0DF5F25
:1001F000D43008F4B6CF112349F086E2C89FF0014D
:100200001124E757FF4F8081918106C0CF5FC63030
:1002100008F466CF80E690E0DF91CF911F910F91B7
:10022000FF90EF900895CF93C82F60E08DE10E947A
:1002300009036C2F661F6627661F8BE10E94090366
:10024000C6FB662760F98AE10E940903C5FB6627A1
:1002500060F989E10E940903C4FB662760F988E11F
:100260000E94090361E08CE10E9409038FEC97E092
:100270000197F1F700C0000060E08CE10E940903E3
:100280008FEC97E00197F1F700C00000C3FB6627F1
:1002900060F98BE10E940903C2FB662760F98AE1DD
:1002A0000E940903C1FB662760F989E10E940903E6
:1002B0006C2F617088E10E94090361E08CE10E946B
:1002C00009038FEC97E00197F1F700C0000060E0B0
:1002D0008CE10E9409038FEC97E00197F1F700C0D1
:1002E0000000CF910895CF93C82F61E08DE10E9467
:1002F00009036C2F661F6627661F8BE10E940903A6
:10030000C6FB662760F98AE10E940903C5FB6627E0
:1003100060F989E10E940903C4FB662760F988E15E
:100320000E94090361E08CE10E9409038FEC97E0D1
:100330000197F1F700C0000060E08CE10E94090322
:100340008FEC97E00197F1F700C00000C3FB662730
:1003500060F98BE10E940903C2FB662760F98AE11C
:100360000E940903C1FB662760F989E10E94090325
:100370006C2F617088E10E94090361E08CE10E94AA
:1003800009038FEC97E00197F1F700C0000060E0EF
:100390008CE10E9409038FEC97E00197F1F700C010
:1003A0000000CF9108952FE788E391E0215080402D
:1003B0009040E1F700C0000082E00E94130188E253
:1003C0000E9413018FE00E94130181E00E9413013B
:1003D0008FEC97E00197F1F700C0000086E00E94E3
:1003E0001301089581E00E9413018FEC97E00197BB
:1003F000F1F700C0000008950F931F93CF938C0175
:10040000C0E003C00E947301CF5FF801EC0FF11D43
:1004100080818111F7CFCF911F910F9108950E9494
:10042000F9020E94D3010E94F2010E946800909399
:100430008F0180938E010E94FC01FFCF982F96952B
:100440009695969587709130D9F138F0923009F4ED
:100450006AC0933009F49AC00895613089F018F0A9
:100460006230E1F008954AB321E030E0B90102C002
:10047000660F771F8A95E2F7CB01842B8ABB08951C
:100480004AB321E030E0B90102C0660F771F8A95B8
:10049000E2F7CB01809584238ABB08954AB321E01B
:1004A00030E0B90102C0660F771F8A95E2F7CB01F1
:1004B000962F909594239ABB9BB3892B8BBB089561
:1004C000613089F018F06230E1F0089547B321E01F
:1004D00030E0B90102C0660F771F8A95E2F7CB01C1
:1004E000842B87BB089547B321E030E0B90102C0F7
:1004F000660F771F8A95E2F7CB018095842387BB2F
:10050000089547B321E030E0B90102C0660F771FBC
:100510008A95E2F7CB01962F9095942397BB98B3D9
:10052000892B88BB0895613089F018F06230E1F0C2
:10053000089544B321E030E0B90102C0660F771F8F
:100540008A95E2F7CB01842B84BB089544B321E064
:1005500030E0B90102C0660F771F8A95E2F7CB0140
:100560008095842384BB089544B321E030E0B90131
:1005700002C0660F771F8A95E2F7CB01962F909500
:10058000942394BB95B3892B85BB0895613089F082
:1005900018F06230E1F0089541B321E030E0B90194
:1005A00002C0660F771F8A95E2F7CB01842B81BBCF
:1005B000089541B321E030E0B90102C0660F771F12
:1005C0008A95E2F7CB018095842381BB089541B3DE
:1005D00021E030E0B90102C0660F771F8A95E2F78B
:1005E000CB01962F9095942391BB92B3892B82BB1C
:1005F0000895CF93C0E009C0EC2FF0E0E359FE4F1F
:1006000060818C2F0E941E02CF5FC032A8F3CF9171
:100610000895982F9695969596958770913041F10B
:1006200038F0923009F444C0933009F460C0089562
:10063000662381F0613009F078C04BB321E030E0EF
:10064000B90102C0660F771F8A95E2F7CB01842BB0
:100650008BBB08954BB321E030E0B90102C0660FB7
:10066000771F8A95E2F7CB01809584238BBB089591
:10067000662381F0613009F058C048B321E030E0D2
:10068000B90102C0660F771F8A95E2F7CB01842B70
:1006900088BB089548B321E030E0B90102C0660F7D
:1006A000771F8A95E2F7CB018095842388BB089554
:1006B000662379F06130C9F545B321E030E0B90136
:1006C00002C0660F771F8A95E2F7CB01842B85BBAA
:1006D000089545B321E030E0B90102C0660F771FED
:1006E0008A95E2F7CB018095842385BB0895662324
:1006F00079F06130D1F442B321E030E0B90102C0B9
:10070000660F771F8A95E2F7CB01842B82BB089591
:1007100042B321E030E0B90102C0660F771F8A952D
:10072000E2F7CB018095842382BB0895982F96959C
:1007300096959695482F4770913081F028F0923029
:10074000B9F09330F9F028C099B3892F90E002C036
:10075000959587954A95E2F78170089526B330E024
:10076000C90102C0959587954A95E2F78170089571
:1007700023B330E0C90102C0959587954A95E2F709
:100780008170089520B330E0C90102C09595879526
:100790004A95E2F78170089580E00895F894FFCFBC
:1007A000556E6B6E6F776E204943003734303000E2
:1007B0003734303200373430340037343038003793
:1007C0003433320037343836006B00000001000249
:1007D0000103000400050106000701080009000AE2
:1007E000010B000C000D00A424AD36B62D1B3B7090
:1007F00000000101000200030104000500060007DB
:1008000000080009010A000B000C010D000932A4C8
:10081000241229B62D750000010100020103000415
:1008200001050006000700080109000A010B000C81
:10083000010D00AA2A1535AA2A15357A00000001F3
:100840000002010300040005010600070108000979
:10085000000A010B000C000D00002009321229BF14
:100860003F7F0000000100020103000400050106B3
:10087000000701080009000A010B000C000D000030
:1008800020AD36B62DBF3F840000000100020103F9
:10089000000400050106000701080009000A010B19
:1008A000000C000D000020AD36B62D1B3B010000F2
:1008B0000000000000000000000000000000000038
:0E08C000000002000000000000000002000026
:00000001FF
